:10010600010800010C00010901010D01010A0001AD
:020116000B01DB
:03000B0002009A56
:10009A00C0E0C0D0758A01758CEE0508E508B4C8C1
:1000AA0006750C01750800A280E433F509B50D0C3C
:1000BA00050AE50AB4050885090B8000750A00855A
:0700CA00090DD0D0D0E03297
:1000D1007E01E4FDF5A0758A01758CEE758901D26A
:1000E100A9D28CD2AFAF0BEED39F40036305FFEDD6
:1000F100600CE50C600B63A0FFE4F50C8003E4F5F4
:05010100A0AE0780E044
:0300000002000EED
:0C000E00787FE4F6D8FD75810D020055E6
:10001A000200D1E493A3F8E493A34003F68001F22B
:10002A0008DFF48029E493A3F85407240CC8C333E7
:10003A00C4540F4420C8834004F456800146F6DFB6
:10004A00E4800B0102040810204080900106E47E3F
:10005A00019360BCA3FF543F30E509541FFEE493AB
:10006A00A360010ECF54C025E060A840B8E493A372
:10007A00FAE493A3F8E493A3C8C582C8CAC583CA9D
:10008A00F0A3C8C582C8CAC583CADFE9DEE780BE55
:0101180000E6
:00000001FF
