:1004BF0050523A20310050523A200042523A200016
:1004CF0053746172740053746F70004572726F725F
:0204DF002100FA
:100387000724814224182442000C2B01020305088C
:100397000D1522375990E9013F00013B00013C0050
:1003A700013A000123000137010122000121000168
:0803B7003DC801380601390CB4
:1003C000120003E53A7BFFB401097A0479BF1204F5
:1003D0009C800F7A0479C512049CE53A242FFF1201
:1003E00003421204E17BFF7A0479CA12049CE537C8
:0603F0002430FF0203426D
:10002600E54064287040E5416453703AE542645403
:100036007034E5436441702EE54464527028E5450A
:10004600B45423E546B4291EE53C600302017675E7
:100056003C01753A01F5221200037BFF7A0479CF41
:1000660012049C020520E54064287048E54164536B
:100076007042E5426454703CE543644F7036E54493
:1000860064507030E5456429702AE53C700302012E
:1000960076E4F53CF53AF523753701F522753DC84A
:1000A600F52175380675390C1200037BFF7A047941
:1000B600D5020173E54064287045E5416450703F00
:1000C600E54264527039E543643A7033E544C394BB
:1000D60031402CE544D394345025E545B42920E538
:1000E6004424D1FFE434FFFEE53A6F7001EE70035D
:1000F600020176E53C6079E54424D1F53A804CE589
:100106004064287049E54164427043E54264527098
:100116003DE543643A7037E54464316006E544647E
:1001260032702BE54564297025E54424D0FF6537F8
:10013600603EE53C603A8F37E537B40208E4F521C6
:10014600753D648006E4F521753DC80203C0753A25
:1001560006E4F523F53C753701F521753DC875387C
:100166000675390C1200037BFF7A0479DA12049CB7
:010176002266
:1002F100E53A24FE600D14600E14601D14602A247A
:1003010004703A6322FF22E5226003B4800475225F
:100311000122E52225E0F52222E538B40603E4F5C1
:1003210038AF3805387424800EE539B40C03E4F590
:1003310039AF390539742B2FF8E6F522227522FFE2
:010341002299
:10045100E4F5A0C2AF759850758780759B1C759A9D
:10046100FDD2AC758910D2ABF58B758DEED28ED2E3
:07047100AF120203020003B9
:03001B000203F6E7
:1003F600C0E0C0D0758B00758DEE0521E521B53DB9
:1004060006753B01752100E53A6523600C853A23A4
:0E04160075220075380675390CD0D0D0E03252
:0300230002028551
:10028500C0E0C0F0C083C082C0D075D000C000C03F
:1002950001C002C003C004C005C006C007C2AF301C
:1002A5009828C29885993EE53EB42803753F00AF6E
:1002B5003F053F74402FF8A63EE53F75F00A84855B
:1002C500F03FE53EB42903120026309902C299D2C7
:1002D500AFD007D006D005D004D003D002D001D0CE
:0C02E50000D0D0D082D083D0F0D0E03226
:10050200120451E53B600AE4F53BE53C600312024C
:0E051200F1E53AB406037522FF8522A080E5CC
:07056C007590E075B0F92263
:10052000E58954F04401F589E4FF758CEEE4F58A21
:0B053000D28C308DFDC28D0FBFC8EFD4
:01053B00229D
:06055800D292C293C2B270
:0E055E00758CFF758AD2D28C308DFDC28D2235
:0E053C00C2B3D2B2C290C291C292D293C2B2E6
:0E054A00758CF8758ACDD28C308DFDC28D2255
:1002030012056C120520C2B3D2B2C290C29112057C
:1002130058C2B3D2B2C290C291D292C293C2B200B8
:10022300C2B3D2B2D290C291C29212055AC2B3D211
:10023300B2C290C291C292C293C2B200C2B3D2B24E
:10024300D290D291D292D293C2B212055EC2B3D2ED
:10025300B2C290C291C292C293C2B20012053C12C2
:10026300054AC2B3D2B2C290C291C292C293C2B281
:1002730000C2B3D2B2C290D29112055812054AD22B
:020283009422C3
:10000300C2B3D2B2C290C291C292C293C2B2001220
:05001300053C02054A56
:050478009290AF041D8D
:10047D007401A805088002C333D8FC5FFFAE05A840
:0E048D0006088002C313D8FC24FF9200A200D0
:01049B00223E
:10034200AC07D2B3D2B27D0712047D120478929127
:10035200AF041D12047D9292AF041D12047D92938C
:10036200C2B200D2B2AF041D12047D12047892917F
:10037200AF041D12047D9292AF041D12047D92936C
:05038200C2B202055E9D
:06049C008B088A09890AA1
:1004A200E4F50BAB08AA09A90A850B827583001231
:0C04B2000424FF6007120342050B80E7E2
:0104BE00221B
:1004E100C2B3D2B2D290D291C292C293C2B200D25E
:1004F100B2C290C291C292C293C2B212054A02051F
:010501004AAF
:0300000002017783
:0C017700787FE4F6D8FD7581490201BED6
:10042400BB010CE58229F582E5833AF583E022508D
:1004340006E92582F8E622BBFE06E92582F8E222D7
:0D044400E58229F582E5833AF583E49322F1
:10018300020502E493A3F8E493A34003F68001F28B
:1001930008DFF48029E493A3F85407240CC8C3337D
:1001A300C4540F4420C8834004F456800146F6DF4C
:1001B300E4800B0102040810204080900387E47E52
:1001C300019360BCA3FF543F30E509541FFEE49341
:1001D300A360010ECF54C025E060A840B8E493A308
:1001E300FAE493A3F8E493A3C8C582C8CAC583CA33
:1001F300F0A3C8C582C8CAC583CADFE9DEE780BEEB
:0103BF00003D
:00000001FF
