:1001EF004E656E61640D0A004572726F720D0A00E2
:0D01FF00030DFF01EF0309FF01F7010C00E4
:10019C00E51464287044E515644C703EE51664451E
:1001AC007038E51764447032E518B43A2DC3E5197C
:1001BC00648094B04024D3E519648094B7501BE557
:1001CC001AB42916E51924D0F508FF7401A80708FC
:1001DC008002C333D8FCF5A0800375A0FFE4F514AE
:0301EC00F50C22ED
:0300230002013D9A
:10013D00C0E0C0F0C0D075D000C000C004C005C084
:10014D0006C007309833C298859910E510B428037E
:10015D00750C007414250CF8A610AF0CEF3395E058
:10016D00FEEF2401FFE43EFE7C007D0A1200B28DFD
:10017D000CE510B4290312019C309902C299D007E5
:0F018D00D006D005D004D000D0D0D0F0D0E032D2
:10000300C2AF759850758780759B1C759AFDD2ACED
:07001300D2AFE4F5A080FE6E
:03000000020026D5
:0C002600787FE4F6D8FD75811D02006DA6
:1000B200C2D5EC30E709B2D5E4C39DFDE49CFCEE69
:1000C20030E715B2D5E4C39FFFE49EFE1200E8C3F9
:1000D200E49DFDE49CFC80031200E830D507C3E4F4
:0600E2009FFFE49EFE22D8
:10003200020003E493A3F8E493A34003F68001F2E1
:1000420008DFF48029E493A3F85407240CC8C333CF
:10005200C4540F4420C8834004F456800146F6DF9E
:10006200E4800B01020408102040809001FFE47E2E
:10007200019360BCA3FF543F30E509541FFEE49393
:10008200A360010ECF54C025E060A840B8E493A35A
:10009200FAE493A3F8E493A3C8C582C8CAC583CA85
:1000A200F0A3C8C582C8CAC583CADFE9DEE780BE3D
:01020C0000F1
:1000E800BC000BBE0029EF8DF084FFADF022E4CCFC
:1000F800F875F008EF2FFFEE33FEEC33FCEE9DECC5
:10010800984005FCEE9DFE0FD5F0E9E4CEFD22ED0A
:10011800F8F5F0EE8420D21CFEADF075F008EF2F54
:10012800FFED33FD4007985006D5F0F222C398FD45
:050138000FD5F0EA22E2
:00000001FF
