:0701B5004E656E616400005D
:1000D200758C4B758AFDE58954F04401F589D28C03
:1000E200E4FFFE308DFDC28D758C4B758AFD0FBF0E
:0D00F20000010EEF64144E70EAC28DC28C46
:0100FF0022DE
:06017500D292C293C2B257
:10017B00758CFF758AD2D28C308DFDC28DC28C22CC
:10018B00758CF8758ACDD28C308DFDC28DC28C22C8
:100003001200D2D2B2C2B3C290C291120175D2B25F
:10001300C2B3C290C291D292C293C2B200D2B2C250
:10002300B3D290C291C292120177D2B2C2B3C2903C
:10003300C291C292C293C2B200D2B2C2B3D290D220
:1000430091D292D293C2B212017BD2B2C2B3C29006
:10005300C291C292C293C2B200D2B2C2B3C290C220
:1000630091C292D293C2B212018B12018BD2B2C24D
:10007300B3C290C291C292C293C2B200D2B2C2B30F
:0D008300C290D29112017512018BD294220D
:100090001200A89290AF021D1200A89291AF021D0B
:0800A0001200A89292AF021DAC
:1000A800AC0774017E00A805088005C333CE33CEA3
:1000B800D8F9FFECFBE4FEEF5BA805088006CEA2AA
:0A00C800E713CE13D8F84E24FF22F0
:10015400AA07D2B2D2B37D071200909293C2B20022
:10016400D2B2D2B3AF021D1200909293C2B2020176
:010174007B0F
:06012D008B088A09890A13
:10013300E4F50BAB08AA09A90AAF0BEF3395E08FDF
:1001430082F583120100FF6007120154050B80E35F
:010153002289
:0E019B001200037BFF7A0179B512012D80FE60
:030000000201A951
:0C01A900787FE4F6D8FD75810B02019B05
:10010000BB010CE58229F582E5833AF583E02250B4
:1001100006E92582F8E622BBFE06E92582F8E222FE
:0D012000E58229F582E5833AF583E4932218
:00000001FF
