:06000300010900010800E4
:03000B000200BA36
:1000BA00C0E0C0D0758A10758C4C0508E508B414E8
:0C00CA0006750901750800D0D0D0E032A6
:10009A00C2AF758A10758C4C758901D28CD2A9D2DF
:1000AA00AFE4F5A0E50960FC63A0FFE4F50980F47C
:0300000002000EED
:0C000E00787FE4F6D8FD758109020055EA
:10001A0002009AE493A3F8E493A34003F68001F262
:10002A0008DFF48029E493A3F85407240CC8C333E7
:10003A00C4540F4420C8834004F456800146F6DFB6
:10004A00E4800B0102040810204080900003E47E43
:10005A00019360BCA3FF543F30E509541FFEE493AB
:10006A00A360010ECF54C025E060A840B8E493A372
:10007A00FAE493A3F8E493A3C8C582C8CAC583CA9D
:10008A00F0A3C8C582C8CAC583CADFE9DEE780BE55
:0100090000F6
:00000001FF
