:10005200E4FFFEE4FDFCE4FBFA0BBB00010AEB64E7
:10006200C84A70F50DBD00010CED64C84C70E70F75
:0A007200BF00010EEF64034E70D9C9
:01007C002261
:100003007508017509017980E4F580F5A0E50925F6
:10001300E0FFE433FEE97C00B50714ECB50610E518
:100023000925E025E0F509E91313543FF9800AE5B2
:100033000925E0F509E9C313F9E509700375090119
:0F004300E970027980E50929F5A012005280BE0C
:0300000002007D7E
:0C007D00787FE4F6D8FD758109020003CD
:00000001FF
