:02000000803E40
:10001B00801381422418244281E990593722150D0F
:10002B000805030201D5400CD54106D208E542F57F
:10003B00417540FA32C2AF7580FF75A0007530FF75
:10004B0075310075320075350075200075360675F3
:10005B00370675380B75390B7540FA7541107542BB
:10006B0010758920758B17758D17D28ED2ABD2AFC9
:10007B0030084CE5306580F532858030E5325580AF
:10008B00F534752000E532B4000BE534B400028082
:10009B0008D2008004D20180F1E520C394006027D0
:1000AB00E520C394036020E532B402157535007565
:1000BB003100754110754210800D8531A0C208804A
:1000CB00AFB40103753501E535B401EEE520C394FA
:1000DB00006056E520C39403604FE532B40108126B
:1000EB00016312016B80D3B40410E540F543E54185
:1000FB00F5447540FA75411080C0B40808120163CD
:10010B0012017580B5B4100812016312017E80AA2A
:10011B00B42008120163120199809FB44005754207
:10012B00108006B48094754208E533B401051201C2
:10013B006B8087B4040AE543F540E544F54101C5FE
:10014B00B4080512017501C5B4100512018D01C566
:10015B00B420FD1201A801C5753100E532F533223B
:10016B00E531F4F5312223F53122E531B400F77591
:10017B00310122753606E53690001D8005E537F511
:04018B003622E536FD
:10018F0093F5311536E53660F02275380BE538906A
:10019F0000248005E539F53822E53893F531153817
:0501AF00E53860F022BC
:00000001FF
