:1001F4000131000208000002320FA00134000E0B8E
:100204000081004200240018002400420000181954
:1002140000010002000300050008000D0015002283
:0802240000370059009000E9C9
:03001B0002025886
:10025800C0E0C0D075D000C0060509E509700205E8
:1002680008AE08B5330DEEB53209750800750900FA
:0A027800753101D006D0D0D0E0327D
:100174008B3A8A3B893C12022DFEF534EF24FC6055
:100184001024FC601024F8602424F0603C241F70C8
:1001940054EEF48057AB3AAA3BA93C12022DFF60FF
:1001A40003B4800474018044EF25E0803FE50AB481
:1001B4000603E4F50AAF0A050AEF25E0240BF80864
:1001C400E6AB3AAA3BA93C8023E50AB40C03E4F568
:1001D4000AAF0A050AEF25E02419F808E6AB3AAAA3
:1001E4003BA93C8007AB3AAA3BA93CE41202462255
:10001E007535FFE4FDF536FCF537F538F539C2AF29
:10002E00758920D28ED2AB758B1A758D1AD2AF759B
:10003E0080FFF5A0E53170030200E2E4F531E5350D
:10004E006580FD8580355580FC20870975390175E1
:10005E0037FF0200E2BD0103EC6004E53860757500
:10006E003801E5396006853437E4F539EC7057ED23
:10007E0070028049BD0211E4F537F508F5097532B5
:10008E000F7533A0F538804CED64016012ED6404F9
:10009E00600DED64086008ED64106003BD2010E48F
:1000AE00F537F50A8D36AF05FB7A0079378022BD1C
:1000BE004022E4F508F50975320F7533A0FB7A007E
:1000CE007937AF36800BEC600B7B007A007937AF57
:0A00DE00361201748537A0020042BB
:030000000200E813
:0C00E800787FE4F6D8FD75813C02012F02
:10022D00BB010689828A83E0225002E722BBFE02CF
:09023D00E32289828A83E4932202
:10024600BB010689828A83F0225002F722BBFE0197
:02025600F32291
:1000F40002001EE493A3F8E493A34003F68001F204
:1001040008DFF48029E493A3F85407240CC8C3330C
:10011400C4540F4420C8834004F456800146F6DFDB
:10012400E4800B01020408102040809001F4E47E76
:10013400019360BCA3FF543F30E509541FFEE493D0
:10014400A360010ECF54C025E060A840B8E493A397
:10015400FAE493A3F8E493A3C8C582C8CAC583CAC2
:10016400F0A3C8C582C8CAC583CADFE9DEE780BE7A
:01022C0000D1
:00000001FF
